{
  "_format": "hh-sol-artifact-1",
  "contractName": "Token",
  "sourceName": "contracts/HashComparer.sol",
  "abi": [
    {
      "inputs": [],
      "stateMutability": "nonpayable",
      "type": "constructor"
    },
    {
      "inputs": [
        {
          "internalType": "string",
          "name": "str1",
          "type": "string"
        },
        {
          "internalType": "string",
          "name": "str2",
          "type": "string"
        }
      ],
      "name": "checkStringEquality",
      "outputs": [
        {
          "internalType": "bool",
          "name": "",
          "type": "bool"
        }
      ],
      "stateMutability": "pure",
      "type": "function"
    },
    {
      "inputs": [],
      "name": "compare",
      "outputs": [
        {
          "internalType": "int256",
          "name": "",
          "type": "int256"
        }
      ],
      "stateMutability": "view",
      "type": "function"
    },
    {
      "inputs": [],
      "name": "generatedHash",
      "outputs": [
        {
          "internalType": "string",
          "name": "",
          "type": "string"
        }
      ],
      "stateMutability": "view",
      "type": "function"
    },
    {
      "inputs": [],
      "name": "ipfsHash",
      "outputs": [
        {
          "internalType": "string",
          "name": "",
          "type": "string"
        }
      ],
      "stateMutability": "view",
      "type": "function"
    },
    {
      "inputs": [],
      "name": "name",
      "outputs": [
        {
          "internalType": "string",
          "name": "",
          "type": "string"
        }
      ],
      "stateMutability": "view",
      "type": "function"
    },
    {
      "inputs": [],
      "name": "owner",
      "outputs": [
        {
          "internalType": "address",
          "name": "",
          "type": "address"
        }
      ],
      "stateMutability": "view",
      "type": "function"
    },
    {
      "inputs": [
        {
          "internalType": "string",
          "name": "hash",
          "type": "string"
        }
      ],
      "name": "setGeneratedHash",
      "outputs": [],
      "stateMutability": "nonpayable",
      "type": "function"
    },
    {
      "inputs": [
        {
          "internalType": "string",
          "name": "hash",
          "type": "string"
        }
      ],
      "name": "setIPFSHash",
      "outputs": [],
      "stateMutability": "nonpayable",
      "type": "function"
    }
  ],
  "bytecode": "0x60806040526040518060400160405280600c81526020017f48617368436f6d70617265720000000000000000000000000000000000000000815250600090816200004a91906200035c565b5060405180602001604052806000815250600190816200006b91906200035c565b5060405180602001604052806000815250600290816200008c91906200035c565b503480156200009a57600080fd5b5033600360006101000a81548173ffffffffffffffffffffffffffffffffffffffff021916908373ffffffffffffffffffffffffffffffffffffffff16021790555062000443565b600081519050919050565b7f4e487b7100000000000000000000000000000000000000000000000000000000600052604160045260246000fd5b7f4e487b7100000000000000000000000000000000000000000000000000000000600052602260045260246000fd5b600060028204905060018216806200016457607f821691505b6020821081036200017a57620001796200011c565b5b50919050565b60008190508160005260206000209050919050565b60006020601f8301049050919050565b600082821b905092915050565b600060088302620001e47fffffffffffffffffffffffffffffffffffffffffffffffffffffffffffffffff82620001a5565b620001f08683620001a5565b95508019841693508086168417925050509392505050565b6000819050919050565b6000819050919050565b60006200023d62000237620002318462000208565b62000212565b62000208565b9050919050565b6000819050919050565b62000259836200021c565b62000271620002688262000244565b848454620001b2565b825550505050565b600090565b6200028862000279565b620002958184846200024e565b505050565b5b81811015620002bd57620002b16000826200027e565b6001810190506200029b565b5050565b601f8211156200030c57620002d68162000180565b620002e18462000195565b81016020851015620002f1578190505b62000309620003008562000195565b8301826200029a565b50505b505050565b600082821c905092915050565b6000620003316000198460080262000311565b1980831691505092915050565b60006200034c83836200031e565b9150826002028217905092915050565b6200036782620000e2565b67ffffffffffffffff811115620003835762000382620000ed565b5b6200038f82546200014b565b6200039c828285620002c1565b600060209050601f831160018114620003d45760008415620003bf578287015190505b620003cb85826200033e565b8655506200043b565b601f198416620003e48662000180565b60005b828110156200040e57848901518255600182019150602085019450602081019050620003e7565b868310156200042e57848901516200042a601f8916826200031e565b8355505b6001600288020188555050505b505050505050565b610c2280620004536000396000f3fe608060405234801561001057600080fd5b50600436106100885760003560e01c80638da5cb5b1161005b5780638da5cb5b14610103578063a877901114610121578063b8a76f5414610151578063c623674f1461016d57610088565b806306fdde031461008d578063080b4cc5146100ab5780633da0ac79146100c757806341351f86146100e5575b600080fd5b61009561018b565b6040516100a291906105bf565b60405180910390f35b6100c560048036038101906100c0919061072a565b610219565b005b6100cf61022c565b6040516100dc919061078c565b60405180910390f35b6100ed610381565b6040516100fa91906105bf565b60405180910390f35b61010b61040f565b60405161011891906107e8565b60405180910390f35b61013b60048036038101906101369190610803565b610435565b6040516101489190610896565b60405180910390f35b61016b6004803603810190610166919061072a565b61048e565b005b6101756104a1565b60405161018291906105bf565b60405180910390f35b60008054610198906108e0565b80601f01602080910402602001604051908101604052809291908181526020018280546101c4906108e0565b80156102115780601f106101e657610100808354040283529160200191610211565b820191906000526020600020905b8154815290600101906020018083116101f457829003601f168201915b505050505081565b80600290816102289190610ac7565b5050565b600061034c6001805461023e906108e0565b80601f016020809104026020016040519081016040528092919081815260200182805461026a906108e0565b80156102b75780601f1061028c576101008083540402835291602001916102b7565b820191906000526020600020905b81548152906001019060200180831161029a57829003601f168201915b5050505050600280546102c9906108e0565b80601f01602080910402602001604051908101604052809291908181526020018280546102f5906108e0565b80156103425780601f1061031757610100808354040283529160200191610342565b820191906000526020600020905b81548152906001019060200180831161032557829003601f168201915b5050505050610435565b1561035a576000905061037e565b7fffffffffffffffffffffffffffffffffffffffffffffffffffffffffffffffff90505b90565b6002805461038e906108e0565b80601f01602080910402602001604051908101604052809291908181526020018280546103ba906108e0565b80156104075780601f106103dc57610100808354040283529160200191610407565b820191906000526020600020905b8154815290600101906020018083116103ea57829003601f168201915b505050505081565b600360009054906101000a900473ffffffffffffffffffffffffffffffffffffffff1681565b6000816040516020016104489190610bd5565b604051602081830303815290604052805190602001208360405160200161046f9190610bd5565b6040516020818303038152906040528051906020012014905092915050565b806001908161049d9190610ac7565b5050565b600180546104ae906108e0565b80601f01602080910402602001604051908101604052809291908181526020018280546104da906108e0565b80156105275780601f106104fc57610100808354040283529160200191610527565b820191906000526020600020905b81548152906001019060200180831161050a57829003601f168201915b505050505081565b600081519050919050565b600082825260208201905092915050565b60005b8381101561056957808201518184015260208101905061054e565b60008484015250505050565b6000601f19601f8301169050919050565b60006105918261052f565b61059b818561053a565b93506105ab81856020860161054b565b6105b481610575565b840191505092915050565b600060208201905081810360008301526105d98184610586565b905092915050565b6000604051905090565b600080fd5b600080fd5b600080fd5b600080fd5b7f4e487b7100000000000000000000000000000000000000000000000000000000600052604160045260246000fd5b61063782610575565b810181811067ffffffffffffffff82111715610656576106556105ff565b5b80604052505050565b60006106696105e1565b9050610675828261062e565b919050565b600067ffffffffffffffff821115610695576106946105ff565b5b61069e82610575565b9050602081019050919050565b82818337600083830152505050565b60006106cd6106c88461067a565b61065f565b9050828152602081018484840111156106e9576106e86105fa565b5b6106f48482856106ab565b509392505050565b600082601f830112610711576107106105f5565b5b81356107218482602086016106ba565b91505092915050565b6000602082840312156107405761073f6105eb565b5b600082013567ffffffffffffffff81111561075e5761075d6105f0565b5b61076a848285016106fc565b91505092915050565b6000819050919050565b61078681610773565b82525050565b60006020820190506107a1600083018461077d565b92915050565b600073ffffffffffffffffffffffffffffffffffffffff82169050919050565b60006107d2826107a7565b9050919050565b6107e2816107c7565b82525050565b60006020820190506107fd60008301846107d9565b92915050565b6000806040838503121561081a576108196105eb565b5b600083013567ffffffffffffffff811115610838576108376105f0565b5b610844858286016106fc565b925050602083013567ffffffffffffffff811115610865576108646105f0565b5b610871858286016106fc565b9150509250929050565b60008115159050919050565b6108908161087b565b82525050565b60006020820190506108ab6000830184610887565b92915050565b7f4e487b7100000000000000000000000000000000000000000000000000000000600052602260045260246000fd5b600060028204905060018216806108f857607f821691505b60208210810361090b5761090a6108b1565b5b50919050565b60008190508160005260206000209050919050565b60006020601f8301049050919050565b600082821b905092915050565b6000600883026109737fffffffffffffffffffffffffffffffffffffffffffffffffffffffffffffffff82610936565b61097d8683610936565b95508019841693508086168417925050509392505050565b6000819050919050565b6000819050919050565b60006109c46109bf6109ba84610995565b61099f565b610995565b9050919050565b6000819050919050565b6109de836109a9565b6109f26109ea826109cb565b848454610943565b825550505050565b600090565b610a076109fa565b610a128184846109d5565b505050565b5b81811015610a3657610a2b6000826109ff565b600181019050610a18565b5050565b601f821115610a7b57610a4c81610911565b610a5584610926565b81016020851015610a64578190505b610a78610a7085610926565b830182610a17565b50505b505050565b600082821c905092915050565b6000610a9e60001984600802610a80565b1980831691505092915050565b6000610ab78383610a8d565b9150826002028217905092915050565b610ad08261052f565b67ffffffffffffffff811115610ae957610ae86105ff565b5b610af382546108e0565b610afe828285610a3a565b600060209050601f831160018114610b315760008415610b1f578287015190505b610b298582610aab565b865550610b91565b601f198416610b3f86610911565b60005b82811015610b6757848901518255600182019150602085019450602081019050610b42565b86831015610b845784890151610b80601f891682610a8d565b8355505b6001600288020188555050505b505050505050565b600081905092915050565b6000610baf8261052f565b610bb98185610b99565b9350610bc981856020860161054b565b80840191505092915050565b6000610be18284610ba4565b91508190509291505056fea26469706673582212204faefa5e2abe580d0d10b12af6a63a53c5a9435c4c6af8bc88356e1b304d03d664736f6c63430008130033",
  "linkReferences": {},
  "deployedLinkReferences": {}
}